:020000040001F9
:10B0000048400020D5B00100EFB00100F1B00100D0
:10B010000000000000000000000000000000000030
:10B02000000000000000000000000000F3B001007C
:10B030000000000000000000F5B00100F7B00100C2
:10B040001DBA0100F9B0010009BC0100F9B001000E
:10B05000F9B001000000000061B80100B9B70100BB
:10B06000F9B00100F9B00100F9B00100F9B0010038
:10B07000F9B00100F9B00100F9B00100F9B0010028
:10B08000F9B00100B1BA0100F9B00100F9B0010056
:10B0900041BB0100F9B0010049BB0100F9B001005A
:10B0A000F9B00100F9B0010000000000000000004C
:10B0B0000000000000000000000000000000000090
:10B0C0000348854600F0A8FA0048004775080200CA
:10B0D000484000200321094802680A4302600848EA
:10B0E00002680A4302600748804707480047FEE7B6
:10B0F000FEE7FEE7FEE7FEE7FEE70000240500406E
:10B100005405004069BB0100C1B0010030B50B46D9
:10B11000014600202022012409E00D46D5409D4231
:10B1200005D31D469540491B2546954040191546B7
:10B13000521E002DF1DC30BD00487047B44F0200B4
:10B1400003460B439B0703D009E008C9121F08C040
:10B15000042AFAD203E00B780370401C491C521EEB
:10B16000F9D27047D2B201E00270401C491EFBD2F6
:10B1700070470022F6E710B513460A460446194602
:10B18000FFF7F0FF204610BD10B5044605E00B7830
:10B190000370401C002B00D0491C521EF7D22046E1
:10B1A00010BDCAB2401E4178401C8A4202D000291C
:10B1B000F9D100207047421C0178401C0029FBD1C6
:10B1C000801A704710B5002200E0521C835C8C5C32
:10B1D000A34201D1002BF8D1D8B2E1B2401A10BD80
:10B1E00030B504460020034600E05B1C934203D2C6
:10B1F000E05CCD5C401BF8D030BD03460A7802709D
:10B20000401C491C002AF9D11846704730B5054644
:10B210000020034600E05B1C934205D2EC5CC85C56
:10B22000201A01D1002CF6D130BDF0B51FB406466E
:10B23000002082B005464024019100901BE0019956
:10B2400022460F46304600F009FA049A059B801A00
:10B25000994110D310461946224600F0EFF9361AEC
:10B260008F410197224601200021009F00F0E6F95E
:10B2700038184D4100902046641E0028DFDC019BF9
:10B2800000982946324607B0F0BD0000F0B50746E9
:10B290000846584087B0C00F049048000E46590039
:10B2A00040084908BC1A884105D2384631461E4636
:10B2B00017460B4602465800400810434CD0300D4C
:10B2C000039040055900400D490D0590401A029029
:10B2D000402872DA18030121000B09050843019088
:10B2E00004980092002805D001995242002088411C
:10B2F00000920190029840210A1A0199009800F0EA
:10B300009DF905460C466B4607CB00F0B8F9C0190D
:10B310007141039A0E0D0023D71756401A467A4002
:10B32000164344D0049A002A2DD0029A012A039A87
:10B3300015DC1205C01A914101263605001C714129
:10B34000D20F059ED2070093019202962A46234609
:10B3500000F0B5F907B0F0BD38463146FAE71605FA
:10B36000224A0F46B218C01AB74101210905001C34
:10B370004F4100187F41114618187941E20F1043E0
:10B380006D19644113E0E2076D0815436408C207B4
:10B390001443039A01261205C01A91413605001C78
:10B3A0007141CE07400830434908C01851412A4630
:10B3B000234600F077F9CDE7FFE70498012240002B
:10B3C000C117121A00238B4104983146C417381A4A
:10B3D000A141EEE730B40124E407634030BC55E7F7
:10B3E00030B40124E407614030BC4FE70000E0FFC7
:10B3F000F0B51FB488B00B9909980024484009990A
:10B40000C00F490049080991C0070B9900904900F5
:10B4100049080B9109990898A64608431CD00B9936
:10B420000A98084318D0099801244000420D4800AA
:10B43000410D099824050003000B204309900B9847
:10B440000003000B20430B9050181C4940180022A9
:10B4500001901446104605E0002001460DB0F0BDF5
:10B46000032801DA034600E003239C46C11A0AAE12
:10B470000AE05F0008ADED5B4F00F75B7D430027FE
:10B48000AA187C41491C5B1E6145F2DD410004ABFA
:10B490005A522104120C0A43240C401C0828DFDBFA
:10B4A000019802900099704601910090059B049AC2
:10B4B0000799069800F003F9D0E700000DFCFFFFA4
:10B4C000F0B50C465C4085B0E40FE40703944C00F3
:10B4D0000026640859009446490802460296224311
:10B4E00021D062460A431ED06200570D4A000E0367
:10B4F0002303550D012402462C492405781B1B0B00
:10B50000360B401823432643614600901C46501AD0
:10B51000B44103D30098401C009002E092180098B8
:10B520005B41002803DA0020014605B0F0BD002091
:10B53000012109050746864611E064461D46141B95
:10B54000B54106D36546521BB341744607430C43CD
:10B55000A646CD0740084908284392185B41054696
:10B560000D43EAD11046184313D0604619465040A7
:10B570007140084306D06046101AB34106D201223A
:10B58000002306E000220123DB0702E00122D24370
:10B590005310009874460105381C6141029C039DBC
:10B5A0000019694100F07EF8BFE70000FD030000CC
:10B5B0004A0009030123090B1B0519430A4B10B567
:10B5C000520D9A4202DA0020014610BD064B343378
:10B5D0009A4203DC9A1A00F041F810BD034BD218CE
:10B5E00000F02CF810BD0000FF030000CDFBFFFFB2
:10B5F00010B5002904DB0124E40740428C412146B8
:10B60000002B04DB1C460123DB075242A341994275
:10B6100000D1904210BD0000064C0125064E05E009
:10B62000E36807CC2B430C3C98471034B442F7D363
:10B63000FFF74AFDAC500200CC50020010B5202AA2
:10B6400004DB0146203A9140002010BD91402023A8
:10B650009C1A0346E3401943904010BD10B5202AC0
:10B6600004DB0846203AD040002110BD0B46D340F1
:10B67000D0402024A21A91400843194610BD10B5AD
:10B68000202A06DBCB170846203A1041C1170B438E
:10B6900006E00B461341D0402024A21A91400843F3
:10B6A000194610BD10B5002B08DA0024401C61417A
:10B6B00092185B411A4301D14008400010BDF0B51B
:10B6C0001FB482B005460C0003D0084600F076FB9C
:10B6D00002E000F073FB203002460090214628462D
:10B6E000FFF7ACFF049B059A04460F46184311432D
:10B6F000084314D0184610431BD0009840210A1A62
:10B7000018460599FFF7AAFF05460E46009A0599C7
:10B710000498FFF793FF084305D0012004E020467A
:10B72000394607B0F0BD0020C11705430E432C4336
:10B73000374300990E986305401A7905E40A002200
:10B740000C43FD0A0A3002D500200146E9E7010555
:10B75000101969410C9C0D9D00196941FFF7A2FF6A
:10B76000DFE770B58C180578401C6B075B0F01D1C3
:10B770000378401C2A1106D10278401C03E00678A9
:10B780000E70401C491C5B1EF9D12B0705D4002309
:10B79000521E0DD40B70491CFAE70378401CCB1ADB
:10B7A000921C03E01D780D70491C5B1C521EF9D5DC
:10B7B000A142D8D3002070BDFEB5134C0026E0682E
:10B7C0000125124F002810D000F0E0FF00280BD018
:10B7D0000120B86068460670E0680190217C6846E8
:10B7E0000181A57421688847FEBD094806600120D3
:10B7F000B8600848066069460D7080688880A57446
:10B8000068462168EFE70000FC2A00200073004032
:10B810000071004000750040FFB581B01E4615461E
:10B8200004460023012202A908F058FE0746012120
:10B83000204608430B463246294608F04FFE014693
:10B840003940084605B0F0BD08B56B46197011784F
:10B85000597001230222694608F040FE08BD704776
:10B86000F0B50024FF268BB001360125274606944B
:10B87000304605F083FE002807D05448406828422F
:10B8800003D0304605F072FE2C43361D6D007F1C40
:10B89000B6B2042FECD3FF257D35284605F06EFEA9
:10B8A000002809D0284605F061FE6807044306AA6F
:10B8B0000121002005F046FE454D200714D0012748
:10B8C000002627420CD04348B200111808690969C4
:10B8D000C004C00E8903AA58890F002A00D09047DF
:10B8E0007F00761C042EECD3002C6DDA002008902B
:10B8F000401E63E0281940300778B906890E009190
:10B9000000214156491C49D009A9009805F022FAA6
:10B91000002843D0B8090190009802F06DFE800025
:10B920002F580198002F02D0032802D00DE00328E1
:10B9300034D1009808ABC20841079446985C490F7F
:10B9400001228A4010436246985400980521090755
:10B9500080004018072109024018006806A98003EA
:10B96000800F0290009805F0F5F90028029802D0A7
:10B97000022802D012E0032810D10198032808D130
:10B98000029802281ED00221009805F0A5FD761C21
:10B99000F6B2002F02D001990098B847641C042C1D
:10B9A000A8D3002E10D06A460121002005F0CAFD60
:10B9B00006990098884207D00690089800263446D9
:10B9C000099097E70321DFE70BB0F0BD006300406B
:10B9D000982A0020006500408307FF22DB0E9A4072
:10B9E0008907090E994000280BDA0007000F083874
:10B9F000830808489B001818C36993430B43C3612D
:10BA00007047830804489B001B181868904308433C
:10BA10001860704700ED00E000E400E0F8B5FF209A
:10BA2000013005F09FF9002401250E4E0E4F00282D
:10BA300007D00E4804600120B0607D70002002F045
:10BA40001DFEFF20053005F08DF9002808D00748BD
:10BA5000001D04600220B060BD70012002F00EFEE7
:10BA6000F8BD000000030040842A002000010040CF
:10BA70000FB410B5012189020B48FFF77AFBFF21B3
:10BA80000948890003AB029A00F082F90146064892
:10BA900089B200F0C3F8022104A000F0BFF810BC86
:10BAA00008BC04B018470000243400200D0A000030
:10BAB00010B506490020086048608860C8600349E6
:10BAC00040390860486008F0E7FB10BD40110140B4
:10BAD00010B503480078002801D100F0AFF810BD80
:10BAE000FC32002070B50E46182148431349144615
:10BAF0004518E86A1835002804D001280FD002281C
:10BB000005D113E0284600F0CFF8A04201D200246E
:10BB100011E022463146284600F001F90BE02846A4
:10BB200000F0C2F8A042F4D20446F2E731462846BB
:10BB300000F0C5F80446204670BD0000FC3200202D
:10BB400010B508F01BFB10BD10B506484068002872
:10BB500005D08047002801D001F012F810BD04F094
:10BB6000BDFA10BD2C21002010B504F005FB002803
:10BB700005D01F491D484860C8131E4988611E48EA
:10BB8000018CC9B201290BD1828C120708D1028D18
:10BB90001206120F042A03D1828D1206120F0AD048
:10BBA000012921D1818C09071ED1018D0906090FB8
:10BBB0000A2904D007E0114A01219160F5E7828D3E
:10BBC0001206120F05D00D290ED1808D0006000F30
:10BBD0000AD10B480168012904D00A4901600168B3
:10BBE0000129FCD1C021416110BD0000DFFF07C069
:10BBF00000050040006C0040C00F00F0000600404F
:10BC000000EC06407593000010B50249024808F0A8
:10BC1000B1FD10BDE02A00200020004070B50E46A6
:10BC20000546002406E0285D01F0FCF80028FAD162
:10BC3000641CA4B2B442F6D370BD000010B5124C1F
:10BC400002202061606111A0A0611348E061012021
:10BC5000400220620020A06260620CA1A164214623
:10BC6000E0621039E16410212165A0656065E0653E
:10BC70000AA1E01DFFF7C1FA09A12046FFF7BDFAAE
:10BC80002020A07110BD0000FC3200205465726DB0
:10BC9000696E616C00000000EC30002052545400CA
:10BCA00053454747455200000269C1688A4203D89C
:10BCB0008068401A801800E0501A401E7047F7B59F
:10BCC000064682B000200090F46817463069A04212
:10BCD00001D9051B02E0B168201A0D1AB0686D1E6B
:10BCE000001BA84200D80546BD4200D33D467068FF
:10BCF0002A4600190399FFF723FA00987F1B401981
:10BD000000900398641940190390B068A04200D1D4
:10BD10000024F460002FD9D1009805B0F0BDF7B52C
:10BD2000C668174604468068851B6068BD4206D910
:10BD300080190199FFF704FAF019E060FEBD2A4668
:10BD400080190199FFF7FCF901987E1B41193246D1
:10BD50006068FFF7F5F9E660FEBD00000FB41CB5A2
:10BD60000246002007AC00290BD0491E0191009229
:10BD7000064B6A462146069800F01CF9009A0021FD
:10BD800011701CBC08BC04B018470000EDC60100CF
:10BD90007CB51546024600201C4600290BD0491EE2
:10BDA00000920191044B6A462146284600F002F9B0
:10BDB000009A002111707CBDEDC601002021020C0B
:10BDC00001D010211046020A01D01046083902099C
:10BDD00001D01046091F820801D01046891E420872
:10BDE00001D0881E7047081A704730B47446641E2C
:10BDF0002578641CAB4200D21D46635D5B00E318EE
:10BE000030BC184702E008C8121F08C1002AFAD146
:10BE100070477047002001E001C1121F002AFBD1CA
:10BE200070470000202804DA0121814003480142C4
:10BE300001D001207047002070470000FC06FFBCC5
:10BE4000F0B51FB486B00998089A030D002102438B
:10BE500014D05148514A181850430514119801281C
:10BE600010981AD0281A401C00264D4F4D490096B4
:10BE700001910490002812DA444211E01198012443
:10BE800049A3012801D11098C1430698119A8460F2
:10BE90000360C26041600BB0F0BD4042E4E704467D
:10BEA000210500203F4A001C51410391029012E0FD
:10BEB000E00707D032463B4601990098FFF798FA11
:10BEC0000191009032463B4610461946FFF790FA22
:10BED00006460F466410002CEAD10498039B002804
:10BEE000029A0999089806DAFFF782FA019B009AEC
:10BEF000FFF77EFA05E0FFF7E3FA019B009AFFF7F0
:10BF0000DFFA04460E460022284BFFF771FB03D8E8
:10BF10000020C043014607E00022254B2046314661
:10BF2000FFF7B4F9FFF744FB102409E0002C0ADB0B
:10BF30000A220023FFF779F9079B30321A55641E55
:10BF400002460A43F2D11122641C079B121B1C19E2
:10BF5000119B012B03D0012308430ED10AE00843B3
:10BF600004D0112010900020119077E71098151A36
:10BF70006D1E0BE01098824202DD00236D1C03E071
:10BF8000824201DA00236D1E002BEED00698119933
:10BF90008260C16030C07EE701FCFFFF104D0000F1
:10BFA000000014400000F03F300000000000F043AB
:10BFB0000000E03FFFB597B00646002518E22528AF
:10BFC00077D100242746FD49049400E00443761C01
:10BFD00032780120203A90400842F7D130782A2860
:10BFE0000ED00222307801463039092916D804993A
:10BFF0000A235943303940181443761C0490F1E762
:10C00000189802C804911890002904DA012040030E
:10C0100004434842049002200443761C30782E28C2
:10C0200014D1042004437078761C2A2809D118986A
:10C03000761C80C8189009E00A214F43303FC71989
:10C04000761C3078014630390929F5D930786C28CA
:10C0500010D006DC4C281AD068280ED06A2817D1D8
:10C0600004E0742813D07A2812D110E00120400592
:10C0700004430CE00121090501E0032109050C43FB
:10C080007178814203D1012000052418761C761CAA
:10C090003078119066280BD013DC58287DD009DC4D
:10C0A00000287BD04528F6D04628F4D047281AD15E
:10C0B000A5E118E0632835D0642870D0652812D136
:10C0C0009DE170286CD008DC6728F1D069287BD00E
:10C0D0006E280DD06F2806D1BAE073282ED07528AF
:10C0E00071D0782859D01A9A199990476D1C7EE121
:10C0F0006002400F022809D003280DD004281898A8
:10C1000001680DD00D60001D189070E11898EA17B5
:10C1100001680D604A60F6E7189801680D80F2E743
:10C120000D70F0E718986A4601781172001D18909A
:10C130000020507202A80090012005E0189802C863
:10C14000189000200091C04361070DD5002101E047
:10C150000199491C0191B94212DA8142F8DB009A37
:10C16000515C0029F4D10BE0002101E00199491C48
:10C1700001918142FADB019A0099895C0029F5D18D
:10C18000019904981A9B471A21463846199A00F0DB
:10C1900097FA0199401945180BE04FE02CE113E0A4
:10C1A0004EE0009800990078491C00911A9A19995C
:10C1B00090470198401E0190401CF2D1214638461C
:10C1C0001A9B199A10E137E00A2000210090019192
:10C1D0006002410F022907D0189A01CA1892C217AB
:10C1E0009446032908D00AE01898C01DC108C90068
:10C1F00005C91891944607E000B2C2179446042975
:10C2000002D140B2C1178C4600226146944506DA3D
:10C210000A460021404291418C462D2102E0210531
:10C2200004D52B216A461173012103E0E10701D0F7
:10C230002021F7E7029155E00A200AE0102008E0EB
:10C24000102000900021042004430191082703E0FE
:10C2500008200021019100906002410F022907D0BF
:10C26000189A01CA189200229446032908D008E0BF
:10C270001898C01DC108C90005C91891944603E06B
:10C2800080B2042900D1C0B200210291210729D532
:10C290001199702906D0009A1021019B4A401A4337
:10C2A00005D00EE040216A461173012108E0614685
:10C2B000014306D030216A4611731199517302214E
:10C2C0000291009A0821019B4A401A430AD1614613
:10C2D000014301D1610705D530216A46117301215F
:10C2E0007F1E02911199582904D035A10E910DA9F4
:10C2F0000D910DE037A1F9E76146019B009AFEF729
:10C3000094FF0E9B8C469B5C0D9A521E0D921370EF
:10C3100061460143F0D10D9805A9081A203001901B
:10C32000600703D501200004844300E00127019841
:10C33000874201DD381A00E0002001990090411881
:10C34000029809180498401A0490E00306D4214684
:10C350001A9B199A049800F0B3F94519002706E0D2
:10C3600003A81A9AC05D199990476D1C7F1C02980A
:10C370008742F5DBE0030CD521461A9B199A0498F5
:10C3800000F09EF9451904E01A9A30201999904757
:10C390006D1C0099481E00900029F5DC08E00D98FE
:10C3A0000D990078491C0D911A9A199990476D1CA6
:10C3B0000199481E01900029F1DC63E10928010080
:10C3C000303132333435363738396162636465660B
:10C3D00000000000303132333435363738394142CD
:10C3E000434445460000000000F05AF94519761C08
:10C3F0003078002800D0E2E528461BB0F0BD600789
:10C4000000D406271898C01DC108C90048680A68EA
:10C410000831C30FDB071891190001D09CA108E077
:10C42000210501D59BA104E0E10701D09AA100E01C
:10C430009AA1430011985B08109165280CD006DC86
:10C44000452809D046281DD0472841D141E066281B
:10C4500018D067283CD13CE00021112F01DB1120CE
:10C4600000E0781C0191009008A911A8FFF7E8FCF2
:10C47000139905910021119A15927F1C129801972A
:10C48000009150E00120C00703900120019008A90D
:10C49000009711A8FFF7D4FC139A14990592002273
:10C4A000119B009212981593059A0192002901D0D0
:10C4B000104602E0791C40180190381A01D5019805
:10C4C00004E04042401E0090781C0190C01B029086
:10C4D00043E0012F00DA01270021112F01DD112097
:10C4E00000E038460191009008A911A8FFF7A8FCC8
:10C4F00013990591119A00211298159200910197B4
:10C5000021070CD40599B94201DB019900E00191A2
:10C51000012904DD159A491E515C302906D0B84224
:10C5200001DA011D05DA0121029115E00199491E88
:10C53000EDE7002805DC0099411800910199091ADE
:10C5400003E0019A411C914200DD01910099401ADB
:10C55000401C02900120C0070390200706D40299D6
:10C560000198814202DB0020C0430290002069460E
:10C57000C87707AF012103980337C907884224D041
:10C58000022011902B201290039800280CDA4042D0
:10C5900003902D20129007E00A210398FEF7B6FDC4
:10C5A00030317F1E039039701199481E1190002977
:10C5B000F2DC03980028EFD1791E129808703078C9
:10C5C000202108404530BF1E387006A8C01BC01D82
:10C5D000039010980078002800D00120019941189C
:10C5E0000298C0170918039809180498401A401EA9
:10C5F0000490E00306D421461A9B199A049800F08F
:10C600005FF8451910980078002803D01A9A1999F4
:10C6100090476D1CE00324D521461A9B199A049873
:10C6200000F04EF845191CE00098002807DB00993F
:10C630000598884203DD1598405C199901E0199925
:10C6400030201A9A904700986D1C401C0090029868
:10C65000401E0290002804D11A9A2E201999904762
:10C660006D1C0199481E01900029DDDC05E0387839
:10C670001A9A7F1C199990476D1C0399481E0390C4
:10C680000029F4DC21461A9B199A0498ACE60000B4
:10C690002D0000002B000000200000000000000022
:10C6A000F8B5044600251E461746880404D405E064
:10C6B00039462020B0476D1C641EF9D52846F8BDC8
:10C6C000FFB50446002581B01E46C80301D53027BA
:10C6D00000E02027880404D505E038460399B047D8
:10C6E0006D1C641EF9D5284605B0F0BD4A68002AC5
:10C6F00006D00A68531C0B6010704868401E4860E2
:10C700007047000010B50B49002004F0BDFB002865
:10C7100001D000F035FA08481C2201689143183115
:10C72000016004F0A1FB04480121801E04F06AFBB3
:10C7300010BD00003DC701005421002010B5017854
:10C74000002918D14068445E012104F05BFB0028F9
:10C7500001D000F015FA4B2000014443E017800D92
:10C76000001980124100401882B2034803A10280E0
:10C77000032005F00FF910BD502100203A494E4624
:10C780004F3A6164632025640D0A000070B51449B6
:10C790000020124B0860134908608C681248427CE4
:10C7A000C5685600521CAC53D2B24274047CA242FB
:10C7B00012D2846800226468002C0AD001228460AE
:10C7C0002068486001200860002A00D0186000201E
:10C7D00070BD44688460F3E7012070BD00700040C4
:10C7E0000071004000750040FC2A002010B50028B0
:10C7F0000CD000290AD002780B789A4206D1062282
:10C80000401C491CFEF7ECFC002801D0002010BDA4
:10C81000012010BDF7B584B00646002517881580A5
:10C8200020300290407B1446002806D03A4621462C
:10C83000059800F039FF050009D1B078002823D011
:10C84000059886462088001DB84202D90C2007B002
:10C85000F0BD684679DF0028F9D1218803207246AF
:10C86000505420881921401C80B220801154208807
:10C870007146401C80B2208041186846008808F04C
:10C8800025F8218840182080F078002817D02188CA
:10C8900003230A46F356C91C0598B942D6D802218B
:10C8A000815421880122491C89B221804254218867
:10C8B000491C89B2218043542088401C2080706824
:10C8C000002817D021880023C3560A46C91C0598A2
:10C8D000B942BBD80221815421880A22491C89B25D
:10C8E000218042542188491C89B2218043542088E8
:10C8F000401C2080308900280AD0009430460197DF
:10C90000062202210830059B08F03AF805009ED166
:10C91000308A00280AD0009430460197072203216C
:10C920001030059B08F02CF8050090D1308B0028C2
:10C930000AD0009430460197152214211830059B27
:10C9400008F01EF8050082D1306A002806D03B4668
:10C950002246059901F03EFF0500D8D1706A0028F3
:10C9600006D03B462246059904F0DAF80500CED100
:10C970000298007B002807D03B46224630460599A6
:10C9800007F050F80500C2D13078002807D03B46A8
:10C9900022463046059904F03BF90500B7D12846F8
:10C9A00055E70000174A0021535C002B01D00122FB
:10C9B00003E0491C0629F7D300221349012806D0B9
:10C9C00002280BD0032810D0042818D112E0487890
:10C9D000002803D0002A01D0012070478878002861
:10C9E00003D0002A01D002207047C878002801D067
:10C9F000032070470879002801D0042070470020E8
:10CA000070470000292000203C24002010B501229E
:10CA10000221002001F026FC002801D0072812D1B5
:10CA200007220221012001F01DFC002801D0072867
:10CA300009D100210A22084601F014FC002801D087
:10CA4000072800D1002010BDF0B50F468DB00021A1
:10CA500016466D460F24621A825C6A54491C1029DE
:10CA6000F9D328460D211030FEF783FB0020221A4F
:10CA7000395C5219401C11740328F8D368464DDF05
:10CA80000020211A4919203109783154401C03280B
:10CA9000F7D30DB0F0BD10B5022001F099FA10BD2A
:10CAA00070B50024064D06E06968E000085C0121CD
:10CAB00004F084FA641C28788442F5D3002070BD09
:10CAC000B8200020F8B515460C460646052A01D2C6
:10CAD0000720F8BD04F04AFB002803D104F018FB3E
:10CAE0000028F6D1104900204E600C70C8608D609F
:10CAF00008610E4D0DE0E0006968801900918178B1
:10CB00006A46517000780A4A694604F0A3FA002880
:10CB1000DFD12046641EE4B20028ECD1054A002192
:10CB2000024800F063F8F8BDB8200020884E0200EB
:10CB3000CDFA01006DEC010009A1012004F004FF11
:10CB400004F04AFE04F04EFE0028FBD100BEBFF305
:10CB50004F8F0A490848C860BFF34F8F00BFFDE7F9
:10CB60004150505F4552524F523A4552524F523AFD
:10CB7000466174616C0D0A000400FA0500ED00E0E6
:10CB80000EB50021029000916A4601910148FFF71D
:10CB9000D3FF0EBD0140000010B58268C368934208
:10CBA00003D002F051FB002010BD052010BD00296C
:10CBB00006D0002A02D0531E134203D0092070472A
:10CBC0000E2070470160838000218160C1600846AB
:10CBD000704710B58268C3689A1A83889A4203D84E
:10CBE00002F03CFB002010BD042010BD094B5B6827
:10CBF000002B07D0002A07D0002805D00068037C4E
:10CC0000002B03D008207047072070474174426111
:10CC100000207047DC200020FFB507469007002564
:10CC200081B01E461446002825D1002C23D006F0E2
:10CC300017FC3046114EF0603046103005704570DC
:10CC40000299817044607560357001240C487570DC
:10CC50002405046003211420FEF7BEFE0948046089
:10CC6000094CA76003211120FEF7B6FE6068B06092
:10CC7000002005B0F0BD0720FBE70000CC2000201D
:10CC800080E200E000E100E000150140FEB51F4B2E
:10CC90005B68002B30D000282ED0052901D2072058
:10CCA000FEBD4369002B27D0437C012B26D00027F3
:10CCB000029104460025694616460D70684600F04C
:10CCC000D1F801A807F046FE002819D00121017013
:10CCD0000F49446049688160029907614661C160FB
:10CCE00068460A49007948706846007800F0D8F82C
:10CCF00007F086FA2846FEBD0820FEBD0F46D7E79E
:10CD000068460425007800F0CBF8F3E7DC2000202B
:10CD10000015014010B50849496800290AD00028CB
:10CD200008D04169002905D000210174022107F0D3
:10CD30008FFA10BD082010BDDC20002070B50B4D0F
:10CD40000146AE780A48FFF727FF0446002E0AD0B6
:10CD50000020A870691C0122C81D04F04FFA0028A9
:10CD600001D0FFF70DFF204670BD00001421002008
:10CD7000B42C0020F0B5274E89B01F460D000446A4
:10CD800072601CD0A888296882B22348FFF70FFF81
:10CD9000002815D1A889A96882B21F481030FFF772
:10CDA00006FF00280CD120221C496846FEF7C8F96E
:10CDB00060690690207C002804D0012103E0072050
:10CDC00009B0F0BD0021684601750777607C002836
:10CDD00000D00E2069464875E0680290A068039074
:10CDE00020680190606800900A480D4A083004F0FD
:10CDF000C5F90028E4D1B0702068401CE0D0054897
:10CE0000083004F029FA03490122491CC81D04F026
:10CE1000F5F9D5E714210020B42C0020A44E02001F
:10CE20008546020010B501460C48FFF7D2FE04000B
:10CE300012D10B4804F0DAFA00280DD1084907484E
:10CE40000839FFF7A9FE002806D105490122083953
:10CE5000034804F06BFA0446204610BDC42C0020A1
:10CE60001C21002030B5EFF3108172B6094A5468D6
:10CE70000123002C04D00370002900D162B630BD1C
:10CE80005360054B1D68054C254015601C60002251
:10CE90000270F1E7F020002080E100E0FC06FFBC1A
:10CEA00008494A68002A0CD000280AD1EFF3108004
:10CEB00072B60A68044B1A6000224A60002800D14A
:10CEC00062B67047F020002000E100E0F8B50746A8
:10CED00008680C460526411C01253602002906D0AB
:10CEE0002946814019488160206804F0DAFA6068B8
:10CEF000411C02D0002104F0C1FA3968A0698919E7
:10CF00004862607D217D3A6808439119C866386897
:10CF100006CC80194261C160207B083C012814D1F5
:10CF2000A068411C02D0002104F0A8FAE068411C6E
:10CF300005D0854005488560E06804F0B2FA3A689B
:10CF4000E1689219A06891601061F8BD0005005079
:10CF500070B502254D5F0C460646002D14D0B52D48
:10CF600012DAB0210B48FEF704F92A46094D211DBB
:10CF7000E81CFEF7E5F82846618880308185208826
:10CF80002880284601F08EFBB02202493046FEF789
:10CF9000D7F870BD74330020F0B504468BB000881C
:10CFA00000F01EFB0590208803F006F80646A068F6
:10CFB0000090657A684605741E4F208800223978F3
:10CFC00000F05EFB0598002831D06079400710D54D
:10CFD0000721304605F08AF9002813D00822694657
:10CFE0000A7422884A828E82069004A801F02EFFDD
:10CFF00008E02088B97800F031FB002802D03046E4
:10D0000002F0C4FF0321684601712188C180607964
:10D010004007C10F68460172A0794007C10F6846FA
:10D02000417201788172C57201A801F00FFF0BB047
:10D03000F0BD00009C200020F0B50C4693B01F21ED
:10D040006A461180072600279180002809D0C17800
:10D0500049070DD502A9FFF7DDFB002809D102AD74
:10D0600001E000251780002C0ED0E078002802D0C7
:10D07000304613B0F0BD01AA0AA92046FFF7CAFB4B
:10D080000028F6D10AAA02E0684600228780684696
:10D090008088C3B268460088C1B2284672DFE8E7DC
:10D0A000FFB581B01E460A9F1346040047D0002BEF
:10D0B00045D0504D012028700020E87020221946EC
:10D0C0004D48FEF73DF800206F61C0432E61288176
:10D0D000284607211830FEF74CF847483C212030FD
:10D0E000FEF747F84448217820300170A17881701C
:10D0F000E178C170617841703F4A65692369556381
:10D10000114613632031E368A268CB608A603A4914
:10D11000E369A269CB638A63616A00291AD0014678
:10D120003C310246483241628A60636A1B880B8048
:10D13000616A436A898899800021436A07E00E206A
:10D1400005B0F0BD656AAD686D5C5554491C9D889D
:10D150008D42F7D8A16A00291CD0274A9432114683
:10D160000C398A608162A36A9B888B80A16A836A7A
:10D17000098819800021836A04E0A56AAD686D5CA6
:10D180005554491C9D888D42F7D82C210A5D1A49B7
:10D1900040310A73216A002909D016490A31016217
:10D1A000226A52884A80216A026A0988118061686D
:10D1B000002900D04160104A0E490020B3322031CE
:10D1C000C3001B1A85009B180C68401C635108287B
:10D1D000F6DB094A0020EB32030185009B188C68BE
:10D1E000401C63510828F7DB034802992030FFF701
:10D1F00023FFA5E7102000203C24002010B5018863
:10D20000134C102915D0112919D01B2910D1007ADF
:10D2100000280DD1E0780521401CFDF777FF084676
:10D2200000F04EF8002803D06169002900D088473B
:10D2300010BD817D0129FBD18088208110BD002196
:10D240006171808821898842F8D10120E8E70000D7
:10D250001020002010B5022801D003280ED1084C60
:10D26000607800280AD000206070E07800F028F88C
:10D27000002803D06169002900D0884710BD000054
:10D280001020002010B574DF0B4C012060710B4999
:10D290000620C87000210948FFF7CEFE002809D1FA
:10D2A000E07800F00DF8002803D06169002900D073
:10D2B0008847002010BD0000102000205C240020C2
:10D2C000F1B53F4C88B0207800280AD00898E0706B
:10D2D00006A802F0C7F806980125002804D065705A
:10D2E0006AE0082009B0F0BD354800270721183052
:10D2F000FDF73FFF334E7078002802D0E078012818
:10D3000007D0B07800280CD0E078012801D002289E
:10D3100007D12169002903D025710820884700E042
:10D3200027710898FFF73EFBE0702169002909D0BA
:10D33000032801D0042805D13078002802D0607974
:10D34000002811D0A77118216846FDF712FF684622
:10D3500007700772E1781A480B001830FEF745FD98
:10D36000052E080F191D2000A57107208847EAE740
:10D37000A5700190684605704782078213E002217C
:10D38000A170019068460570B1894182318901829E
:10D3900009E0684606F08EFB02E0684606F0B6FB40
:10D3A000E078002803D0684673DF00289AD121690D
:10D3B000002901D0A0788847002093E7A770F6E7FE
:10D3C000102000203C24002070B5054601461C2298
:10D3D0000E48FDF7B5FE0E4C002626702968002980
:10D3E00006D00822201DFDF7ABFE201D7ADF02E0EB
:10D3F0000748001D7BDF002807D1401E6080667053
:10D40000044A00210448FFF7F1FB70BD0826002004
:10D4100040200020D9480200FC4D0200F8B5214C04
:10D420000146028800261E48E589102A13D01E4FA7
:10D43000112A1FD0122A2BD0502A1AD1881DC98830
:10D44000A94216D14189022913D10C3000F06FF99D
:10D4500000280CD112E08A88044642801048082235
:10D460000C301831FDF76CFE6670002D01D101F013
:10D47000F9F9F8BD0021C943418046703868FFF7CB
:10D4800049FC0028F5D0A1690029F2D08847F8BDF1
:10D49000034808220C300831FDF752FEE7E7000090
:10D4A0004020002008260020FC4D020010B5034952
:10D4B0000A7D091D06F0B5F810BD000024260020E5
:10D4C000034B10B50246D97D181D06F097F810BD24
:10D4D00024260020034B10B50246197E181D06F0C5
:10D4E0008DF810BD24260020F0B5044602883A4885
:10D4F0008DB0014615310191102A09D0112A50D062
:10D500001A2A4AD1217A090901294ED901234DE06D
:10D51000027D417D05468A43011D07A806F081F87A
:10D52000142207A902A8FDF70BFE00262A48374659
:10D53000143008900AE0710002A8081883881D22A0
:10D540000097281D089906F019F8761C0298B04239
:10D55000F1D8287DA688C043C0B206F033F81F4931
:10D56000884217D040004019868001233246281D8A
:10D57000019906F079F801233246281D089906F032
:10D5800073F8A07D02280AD000231349A28816311F
:10D59000281D1DE00420FFF7F3FA0DB0F0BD0123B4
:10D5A000F3E70023A288001D12E000230A49054684
:10D5B000A2881731001D06F057F8207A00090228CA
:10D5C00001D9012300E000230349A2881831281D56
:10D5D00006F04AF8E1E7000024260020FFFF0000E3
:10D5E00070B50B4E05460024317D2A46301D06F0ED
:10D5F00005F8002809D0B17D2A46301D05F0FEFF50
:10D60000002801D0022400E00124204670BD000063
:10D610002426002010B50024204607F08FF90028AA
:10D6200005D0641CE4B2182CF6D3182010BD0448B1
:10D6300001220168A24011430160204610BD000094
:10D640002426002010B5044607F078F9002802D0FF
:10D6500001480019407E10BD2426002070B5054603
:10D660000C46084607F06AF9002806D003482A4607
:10D670000119497E001D05F0C1FF70BD2426002060
:10D6800070B5064615460C46084607F057F90028BF
:10D6900007D004482B4601193246001D193105F008
:10D6A000E3FF70BD242600207CB5054608880C46A3
:10D6B0000930904201D90C207CBD684671DF0028FA
:10D6C000FAD121880820685420881B21401C80B290
:10D6D00020802954208800A9401C80B22080401955
:10D6E00006220131FDF72CFD20886946801D80B29D
:10D6F00020800978002900D0012129542088401C6D
:10D70000208000207CBD10B50446FFF7EDFE2046CA
:10D7100005F0F8FA2046FFF781FE204600F0E4FC11
:10D72000204604F0EFF92046FFF768FD10BD417870
:10D73000027808021043C007C00F704700B51748B1
:10D7400087B04068059000234822154905A806F0D7
:10D75000CDFC002801D0FFF713FA6A460121002012
:10D7600006F0ACFC002801D0FFF70AFA684606F084
:10D7700053FC002801D0FFF703FA0A4806F042FCE8
:10D78000002801D0FFF7FCF9074806F0E1FC00286B
:10D7900001D0FFF7F5F907B000BD0000A04D020071
:10D7A0000822002007D701006D41020010B50F4C80
:10D7B0000D48A0600E48E0600E4860613020207186
:10D7C00006F002FE00F0C6FB204600F015F8607877
:10D7D000FA2804D0032804D00020C04310BD012043
:10D7E00010BD022010BD000049B8010024380020FF
:10D7F00019B801005FB801007CB5002269460A70C3
:10D800000A710D4C014660600123CD6800796A46BB
:10D810000021A847054669460878616801224870DA
:10D8200001A93E2000F040F8694662684019097974
:10D8300040B251717CBD00004421002010B503208E
:10D8400000F03EFA10BD000010B5002828D0154C9D
:10D85000A070012000F034FA0F2000F0F9FA032044
:10D8600000F0AAFA0C2000F033F8012000F0ACF927
:10D870000121002000F068F90121052000F0CCF81A
:10D880000121062000F0C8F80121072000F0C4F8AB
:10D890000121022000F070F8A178022000F024FBA2
:10D8A00010BD00003C38002030B4054607484368EE
:10D8B000002B07D0DC68187913460A462946A4468F
:10D8C00030BC60477E2030BCC043704744210020FC
:10D8D000F8B500216A46274D11700C466968002989
:10D8E00008D04B780122D2430838FB2B05D00828FA
:10D8F00026D323E07E20C043F8BD07281ED20300B4
:10D90000FEF773FA0727292B2D2F313305000879ED
:10D910000123CE686A461021B0470646694608785A
:10D920000123400940012043087069686A4608796C
:10D930008C681021A047801940B2F8BD1046F8BD90
:10D940000300FEF752FA0806080A0C0E101214051E
:10D95000DDE70824DBE70924D9E70A24D7E70B240D
:10D96000D5E70C24D3E70D24D1E70E24CFE70F240D
:10D97000CDE7000044210020F8B50C4600216A469E
:10D98000244D11706A68002A09D000280AD00128A5
:10D9900010D0022817D0032823D0881EF8BD7E207F
:10D9A000C043F8BD684604701079012394686A4644
:10D9B000222106E0684604701079012394686A46C3
:10D9C0002521A047F8BD10790123D6686A46272192
:10D9D000B047064669460878A10780088000890F8D
:10D9E0000BE010790123D6686A462721B047064626
:10D9F000694608788007800FA100084369460870CF
:10DA00006968012308798C686A462721A047801934
:10DA100040B2F8BD44210020F3B583B00546002094
:10DA200069460870474C0871616800291FD0087961
:10DA30000123CE686A461621B04761680646087918
:10DA40000123CF6801AA1721B847801946B204986C
:10DA5000FD21C007C00FFB22EF272B00FEF7C5F901
:10DA60000C0B131A21282E333A41494E565D7E2065
:10DA7000C04305B0F0BD6A461179F7221140C000DD
:10DA800001436A4604E06A4611794908490013E0F7
:10DA9000117144E06B461A7940000A4002431A7142
:10DAA0003DE06B461979800011400143197136E061
:10DAB0006A461179394000010143E9E76A46117865
:10DAC0004908490027E06B461A7840000A400243A3
:10DAD0001A7024E06B4619788000114001431970D8
:10DAE0001DE06A461178DF22114040010BE0117001
:10DAF00015E06A461178394000010CE06A46117859
:10DB0000BF221140800101436A46F0E76A4611785E
:10DB10004906490EC0010143E9E70126F643616861
:10DB2000012308798D686A461621A847616885191E
:10DB3000087901238C6801AA1721A047401940B237
:10DB400097E7000044210020F8B500226B461D4CE9
:10DB50001A706268002A09D0C907FB264D0F0028F9
:10DB600007D0012818D00120C043F8BD7E20C04353
:10DB7000F8BD10790123D7686A461921B8470746CE
:10DB800069460878012330402843087061686A4676
:10DB900008798C68192111E010790123D7686A4649
:10DBA0001B21B847074669460878012330402843BF
:10DBB000087061686A4608798C681B21A047C01903
:10DBC00040B2F8BD44210020F8B500216A46264D38
:10DBD00011700C46696800290DD0102841D203004D
:10DBE000FEF703F910290C0E10121416181A1C1E39
:10DBF0002022242628297E20C043F8BD01241AE0D3
:10DC0000022418E0032416E0042414E0052412E0A2
:10DC1000062410E007240EE008240CE009240AE0A2
:10DC20000A2408E00B2406E00C2404E00D2402E0A2
:10DC30000E2400E00F2408790123CE682121B0478B
:10DC40000646694608780123000900012043087050
:10DC500069686A4608798C682121A047801940B21A
:10DC6000F8BD0120C043F8BD44210020F0B51349A0
:10DC700004464968002000290CD0062C1BD2002243
:10DC80000426022701252300FEF7AFF80607090D39
:10DC9000130B10067E20C043F0BD8A7004E08F7025
:10DCA00002E08F7003E08E70CA70F0BD8E70CD7090
:10DCB000F0BD8D70F0BD0120C043F0BD44210020B7
:10DCC000FEB507460020694608700871394C087295
:10DCD000606800286AD0067901230A46C5681121C8
:10DCE0003046A8476168054608790123CE6801AA35
:10DCF0001221B04745193846FFF7B8FF4619616849
:10DD000068460379CA78BF200340D007400E03431A
:10DD10008D7868460371087901238F6801AA122162
:10DD2000B8478619606841690120884768460078CD
:10DD30000123C106C90E68468031017061686A46D8
:10DD400008798F681121B8478619606841690120F8
:10DD500088476068012241796846017202A93E2025
:10DD600000F00CF9861960684169012088476168F4
:10DD700001230879CF686A461121B8478619684699
:10DD800000780123C106C90E68010143684601708D
:10DD900061686A4608798D681121A847801945B2E3
:10DDA00060684169012088472846FEBD7E25ED4315
:10DDB000FAE7000044210020F8B504460020694637
:10DDC000224D0870686800280AD0032C0BD0052C5F
:10DDD00009D0082C07D00C2C05D00120C043F8BD79
:10DDE0007E20C043F8BD077901230A46C6680F218B
:10DDF0003846B0470646032C06D0052C0AD0082C1E
:10DE000018D00C2C0CD11BE06946087800090001E1
:10DE1000C01C04E06946087800090001401D087034
:10DE20006968012308798C686A460F21A047801928
:10DE300040B2F8BD69460878000900010830EEE7F5
:10DE400069460878000900010C30E8E74421002009
:10DE5000F8B500216A46234D11700C466968002907
:10DE60000CD0401F0B2839D20300FDF7BEFF0B0A70
:10DE70000C0E10121416181A1C1E1F007E20C04310
:10DE8000F8BD052412E0062410E007240EE0082463
:10DE90000CE009240AE00A2408E00B2406E00C2424
:10DEA00004E00D2402E00E2400E00F240879012391
:10DEB000CE681121B047064669460878E12108403E
:10DEC00061000843694608706968012308798C6815
:10DED0006A461121A047801940B2F8BD0120C04315
:10DEE000F8BD00004421002038B500226B461A70AE
:10DEF000174A5268002A0AD000280BD0012810D0F7
:10DF0000022816D003281BD00120C04338BD7E2034
:10DF1000C04338BD19701079012394686A462321E3
:10DF200005E019701079012394686A462621A047FC
:10DF300038BD19701079012394686A462821F6E7E4
:10DF400019701079012394686A462921EFE70000CF
:10DF50004421002038B5B62069460870064841685B
:10DF6000002906D0087901238C686A461421A0474D
:10DF700038BD7E20C04338BD4421002030B4054662
:10DF800007484368002B07D09C68187913460A4657
:10DF90002946A44630BC60477E2030BCC043704751
:10DFA000442100200149085C70470000D04D020068
:10DFB0000549095C05480069C840C007C00F00D08A
:10DFC0000120012148407047D04D0200000500505B
:10DFD00005490B5C05494A68012098400346934374
:10DFE0008B601040C8607047D34D020000050050A0
:10DFF00010B50349085C012103F08CFA10BD000044
:10E00000D34D020010B50349085C002103F082FAE9
:10E0100010BD0000D34D02000549095C0548406869
:10E02000C840C007C00F00D0012001214840704700
:10E03000D34D0200000500507CB50024074E254654
:10E04000305D0122009500231146019503F0DAF9B5
:10E05000641C042CF4D300F003F87CBDD34D020003
:10E0600010B500242046FFF7C3FF641C042CF9D32D
:10E0700010BD10B500242046FFF7C4FF641C042C1B
:10E08000F9D310BD0246002010B5C043054B002156
:10E090005C5C944201D1084610BD491C0329F7D3AA
:10E0A00010BD0000D04D020070B50E4E00250C468C
:10E0B000306000290DD0012000F0AEF8002801D01A
:10E0C000022005E0002000F0A7F8002800D00B2077
:10E0D00020707068002802D1FEF798FC054628469B
:10E0E00070BD00000820002010B51C4C018860683D
:10E0F00010290DD011290AD1401E606007D1FEF70A
:10E1000085FC002803D02168002900D0884710BD75
:10E1100000281ED100210122084600F0A3F80028A3
:10E1200001D0072811D107220221012000F09AF81E
:10E13000002801D0072808D104220221002000F085
:10E1400091F8002805D0072803D02168002900D0C5
:10E1500088476068401C606010BD000008200020F7
:10E1600010B5002000F0BCF9002801D0062807D126
:10E17000012000F0B5F9002801D0062800D10020C8
:10E1800010BD0000F3B581B00D460198FFF77AFF8E
:10E190000446032813D21D481D4F1E4E002D27D0C4
:10E1A000012D0DD0022D0AD160002018C01945782C
:10E1B000002D04D03169002901D028468847FEBDD2
:10E1C000610061187D5CCF19797800290BD0B168A6
:10E1D0000A2251430F4A8068921CFEF757FD00281F
:10E1E00001D10198B0700B48B978C01C0155DFE728
:10E1F0008068FEF78FFD074861006118C01CC919CF
:10E20000005D8D78A842D3D0FEBD0000D84D02003D
:10E2100010240020F41F002010B5FFF7C9FE10BD28
:10E22000014610B50D480429C08806D007290CD036
:10E230000A2901D105F094FC10BD132176DF09E015
:10E240000028F9D0FEF79CFC10BD05498842FBD19F
:10E25000FFF718F80828F3D110BD0000E81F0020D0
:10E26000FFFF000070B50023032811D244000419F9
:10E270000D4D012A02D101290DD00022460080193E
:10E28000094E801900290CD0012906D0022906D098
:10E290000723184670BD0E30C2B22A55F9E7427006
:10E2A000F7E78270F5E700001024002010B5054A5A
:10E2B0000146127B0020D20702D0084600F050F839
:10E2C00010BD0000F41F0020F8B506461F480024CA
:10E2D000C660026181600F46B00720D5002501228B
:10E2E00011462846FFF7BEFF6D1C0446032D02D2DF
:10E2F000002CF4D013E0002C11D17A08032114482B
:10E30000FEF7E0FB04000AD1FEF7CAFB040006D1C9
:10E310000F48104A0021001FFEF768FC0446F00772
:10E3200001D0FFF789FE002C0ED109480A4A0021CE
:10E330000C38FEF75BFC040006D10548074A0121B2
:10E340000838FEF753FC04462046F8BDF41F0020B1
:10E35000E44D020089E50100C502020097CA0100F0
:10E36000F8B55D4C054660780026002803D00020F3
:10E370006070FFF775FE0120584F2B00FDF735FD4B
:10E3800018970D0D2E3D4A5F64686F686FA9777707
:10E39000777777979A9DA0A9A9950020FFF73CFE73
:10E3A00000280AD00020FFF723FE022D02D1E12031
:10E3B000C0000BE07D20400108E00020FFF722FEB6
:10E3C000022D01D1C82001E0FF2091302570642189
:10E3D000FCF79CFEA168414300222BE00020FFF7E0
:10E3E0001BFE002805D00020FFF702FE1920400187
:10E3F000ECE70020FFF706FEE4E70020FFF70CFE45
:10E40000002803D00020FFF7F3FDD3E70020FFF73B
:10E41000F9FDD9E70020FFF7FFFD002803D0002019
:10E42000FFF7E6FD02E00020FFF7ECFD2570A06895
:10E43000410000223868FEF729FC064635E000203E
:10E44000FFF7C6FD257007E000203FE025702CE0B7
:10E4500060700120FFF7BCFD0022A168EAE7607050
:10E460000120FFF7B5FDA06881004118E1E7786859
:10E47000FEF750FC06461120401B01D0002E03D0B1
:10E480000220FFF7B5FD10E001280BD9C821484351
:10E490006421FCF73BFEA168002241437868FEF747
:10E4A000F5FB06460220FFF7ADFD3046F8BDFFF74D
:10E4B000D7FDCBE7FFF7D4FDC6E7FFF7D1FD04E0BA
:10E4C000FFF7CEFD0020FFF79DFD0120FFF79AFD2D
:10E4D000BCE7FFF7CEFDB9E7F41F0020D84D0200DE
:10E4E00010B5FFF75FFD032102F0E5FF002010BD2E
:10E4F000002901DA002070470268511801600120EC
:10E5000070470000F8B50D46461C002069460870AB
:10E5100001246846FEF7A6FC134A106828601168BB
:10E5200050689368081A1D1A701C6D1CA84212D9F5
:10E53000002D0ED00D480E4C00882468800519402F
:10E54000800DA402890020438918C8601068401C0F
:10E550001060002401E08819106068460078FEF71A
:10E560009FFC2046F8BD0000D42C0020C44E0200C1
:10E5700028210020034803C8814201D101207047AF
:10E5800000207047D42C002010B500780221FFF73E
:10E59000F9FD10BD0022D243830004490428CA506B
:10E5A00002D308182030027770470000982A002014
:10E5B000F0B50025ED43002A02D00023042601E037
:10E5C000042308260B4C04E09F00E7597F1C04D06D
:10E5D0005B1CB342F8D32846F0BD26185DB2203646
:10E5E00035709E00A151002AF5D1E118203108773D
:10E5F000F1E70000982A0020024909182020085657
:10E6000070470000982A0020002807D00449814262
:10E6100004D80449814201D9012070470020704785
:10E620006021002070210020044A0168914201D03D
:10E63000083101E001493839016070470C2C002095
:10E6400070B50D4D04460A462846AC4208D1FF2459
:10E6500001342146104604F013FBA0420AD070BDDD
:10E66000FF2CFCD82146104604F0FCFA002801D00B
:10E67000204670BD284670BDFFFF000070B5084CF5
:10E68000050009D010342168002907D008682060EF
:10E69000496828468847F6E70834F4E770BD00006B
:10E6A000842A0020FEB500272C26FF4304460028BC
:10E6B00034D0AC20005B002830D00021615EE01C2B
:10E6C0000D182846FCF777FD28182038427F0021D6
:10E6D000232A02D1827F0D2A03D0827F232A05D0EC
:10E6E00007E0C27F0A2A04D1417709E0C27F0D2AE0
:10E6F00003D0C27F232A02D002E0817700E0C177F5
:10E7000009A02146009000230A2284310196284660
:10E7100000F02AFF0A2801DC002801DC3846FEBD93
:10E72000A0700120FEBD00000D0A0000F8B52348CE
:10E73000416800293ED00E6821494C68876880787E
:10E74000E11B0D022D0AED1C002814D101201D4AE9
:10E75000000450601B4A403A50601B49400008606A
:10E760001A4908601A49012008602F2002F01AFB9C
:10E77000124901208870B54200D23546E8190002DE
:10E780000F4B000A403318600D4A5168001B091BEB
:10E790000902090A0002000AC91C814209D950680D
:10E7A00018602F2002F0FEFA01200749400480394A
:10E7B0000860F8BD04F054FEF8BD0000CC20002035
:10E7C000001501404013014080E200E000E100E05C
:10E7D00000100140F8B50646108814468446801D96
:10E7E0000D46984201D90C20F8BD32880720062A30
:10E7F000FAD31927FF01184BBA4201D99A42F3D133
:10E8000071880629F0D3B94201D99942ECD19A42D4
:10E8100003D0994201D08A42E6D8052160462954A6
:10E8200020881221401C80B2208029542088401C5E
:10E8300080B220804119308806F048F821884018BD
:10E8400080B220804119708806F040F82188401875
:10E8500020800020F8BD0000FFFF000010B5FEF78B
:10E860008FF910BDF8B5164801F078FC144D00265C
:10E870000C3D144C002807D0616900291CD00120F0
:10E880006A461070684616E02878002805D061694D
:10E89000002911D0684606700DE0687800280DD078
:10E8A000A168094800220068FEF7F0F9002803D0AB
:10E8B000A169002900D088472E70F8BD6168F0E793
:10E8C0004C20002008260020FC4D020010B500243A
:10E8D000E44300F05DF8022806D105F043FC03484C
:10E8E000018803A0FDF7C4F8204610BD5021002088
:10E8F00041542B4D4144433D2564000070B5002434
:10E90000ACB00546E44300F043F8064629466846A5
:10E91000FEF71EFB012E31D101221AA12198FCF72E
:10E9200075FC00280ED0012217A12198FCF76EFC7F
:10E93000002811D0032215A12198FCF767FC0028BC
:10E9400010D01BE000210E2002F0F0FD002111206C
:10E9500002F0ECFD01210EE000210E2002F0E6FDA8
:10E96000012104E001210E2002F0E0FD0021112030
:10E9700002F0DCFD0021122002F0D8FD20462CB070
:10E9800070BD000048000000540000004F464600E3
:10E9900010B500210223415EC35E994205DA021DD3
:10E9A0008C5C3D2C07D03F2C01D0042010BD491CAD
:10E9B0000180022010BD491C09B20180994202DA8F
:10E9C0008A5C3F2A01D0012010BD491C0180032030
:10E9D00010BD000070B50024E443FFF7D9FF022802
:10E9E00008D1094D2878012806D008A0FDF740F885
:10E9F00000202870204670BD08480021415608A01C
:10EA0000FDF736F8F4E70000EB1F002041542B4DD2
:10EA1000525353493D4E4F4E45000000EA1F00201F
:10EA200041542B4D525353493D25640010B50024E9
:10EA3000E443FFF7ADFF022806D104F00BFF0146C7
:10EA400002A0FDF715F80024204610BD41542B4DBF
:10EA500053454E534F523D256400000010B500242D
:10EA6000E443FFF795FF02280CD1074908690969BB
:10EA70000007C00FC906C90F4000014303A0FCF7FF
:10EA8000F7FF0024204610BD0005005041542B4DD7
:10EA9000535749544445543D25640000F0B50026C1
:10EAA000D9B00446F643FFF773FF054621462CA86C
:10EAB000FEF74EFAB0222CA96846FCF741FB002471
:10EAC0006F4608E0A000C0198030436822460CA0C1
:10EAD000FCF7CEFF641C68468178A142F2DC29462F
:10EAE0000FA0FCF7C5FF012D08D0022D06D0032D85
:10EAF00004D0042D02D0304659B0F0BD0020FBE711
:10EB0000636D642E70617264203D256420636D64C2
:10EB10002E706172735B25645D203D2025730000BB
:10EB2000726573756C74203D20256400F0B5002576
:10EB3000ADB00446ED43FFF72BFF0646214668467D
:10EB4000FEF706FA012E3CD104221FA12198FCF702
:10EB50005DFB00280ED005221DA12198FCF756FB75
:10EB6000002809D006221CA12198FCF74FFB0028A1
:10EB700005D026E0002100E0012114201FE0082636
:10EB80000021304602F0D2FC7D20400102F022F943
:10EB9000002419277F010121082002F0C7FC384614
:10EBA00002F018F90021082002F0C0FC4B204001BF
:10EBB00002F010F9641CB442EDDB0121082002F0E0
:10EBC000B5FC28462DB0F0BD4F50454E000000006A
:10EBD000434C4F53450000004F55545055540000CE
:10EBE0007FB50C46002802D0012004B070BD20790A
:10EBF0000026002806D01B4D01281CD0022828D052
:10EC00000F20F2E702960396E0680190694601A89A
:10EC100004F046FB00280AD002988188E180008831
:10EC2000208169460988029804F0B4FB00E00A20BC
:10EC300002212171D9E70C4B6A460021A01D04F086
:10EC4000EDFA002807D0084908398E60CE600A28FE
:10EC5000CBD12846C9E704488188019804F09AFB83
:10EC6000F5E700001D1D000000210020F8B500267A
:10EC70000124154D23E06968F000471838782146D3
:10EC80002A698140114218D08A432A6102F036FA7B
:10EC90003A782146EB6891401940034693409942E7
:10ECA0000BD17978012901D0012100E000217B6896
:10ECB0004140002B01D010469847761CF6B22878C8
:10ECC0008642D8D3F8BD0000B820002010B50E4908
:10ECD00000230A784C78A24212D0521CD2B20A7099
:10ECE000022A00D10B700A78074B920018339A5809
:10ECF0000260886810180002000A8860012010BDB8
:10ED00000360002010BD0000CC2000203EB5094D5E
:10ED100038CD0093029501946B46588099809A7182
:10ED2000054900220978FEF7ABFC684600F08EF832
:10ED30003EBD0000704E02009C20002010B50478FB
:10ED400000222300FDF751F8070605070D1D262CAC
:10ED500006000A7010BD01220A7002898A81828829
:10ED600014E002220A7002898A818288CA81C268FC
:10ED70008A60007C062802D00020087410BD0120A3
:10ED8000FBE703220A70C2888A810289CA81C068AF
:10ED9000886010BD04230B70C0888881CA8110BDB3
:10EDA0000520087010BD000070B5064D0646002411
:10EDB000A0002958002901D030468847641C082C3F
:10EDC000F6D370BD3C2B00200EB5002910D01129C0
:10EDD0000ED00022009202926A46508001910D29C5
:10EDE00007D0862907D009201070104600F03CF8A3
:10EDF0000EBD0B20F8E70A20F6E70000014909687C
:10EE0000084700005C20002070B5054D0646002430
:10EE1000A000295830468847641C022CF8D370BDE6
:10EE2000184E0200F8B507460024064E064D04E0D1
:10EE3000A000315838468847641CE8788442F7DBE4
:10EE4000F8BD0000382A00208C20002070B5054D48
:10EE500006460024A000295830468847641C022C2E
:10EE6000F8D370BD384E0200014909680847000018
:10EE70007C4E02007FB50446406800280BD000207D
:10EE8000039020780026414D0300FCF7AEFF066D8D
:10EE90000606304E7B6D0120F2E7A08900F0ECF908
:10EEA000002804D1E08904F097FA00285CD0A089FA
:10EEB00000F0DDF9014668464180E08904F086FAF9
:10EEC00001466846017120780128606807D0002853
:10EED00009D00420694608706068039020E000288B
:10EEE000F8D00320F6E70120F4E708463AE0A089CD
:10EEF00000F0C2F9002804D1E08904F06DFA00287E
:10EF000032D0A08900F0B3F969464880E08904F066
:10EF10005DFA694608716068002804D00520087011
:10EF2000A0680290E1E70220F9E7A08900F0A4F9C7
:10EF3000002819D0E089002816D1A08900F097F99F
:10EF400069464880E08904F041FAFF20694608716B
:10EF5000606800280FD0072008706E70AE7003F054
:10EF6000A1FB684603F05AFA6878002802D06E7058
:10EF700003F098FB7FBD062168460170408803F0CE
:10EF80001FFCEAE7082069460870AEE778200020F9
:10EF900000B5104987B00978890702D4022007B06C
:10EFA00000BD0D49884201D10420F8E705226946D9
:10EFB0000A7001220A71C88000221146684602F0D8
:10EFC00065FE002803D004F005F90020E7E70820DB
:10EFD000E5E70000F8200020FFFF000000B50F4823
:10EFE00087B00078800702D4022007B000BD062059
:10EFF0006946087000221146684602F047FE002864
:10F0000009D007480178002901D00121017304F0DB
:10F01000E1F80020E9E70820E7E70000F8200020F9
:10F020003C2C002010B58CB014216846FCF7A1F8E8
:10F030001D480078810703D56846FFF7B5FE30E02C
:10F04000C0072ED1012000F03DF900F0B5F90124F0
:10F050006846047502F0DAFE0300FCF7C6FE0C07F2
:10F060001107111B190A191B1317131B0B200CB0C6
:10F0700010BD022000F026F9012000F009F9DBE7BD
:10F08000002000E003206946087603E00220FAE74A
:10F09000684604760022114605A802F0F7FD04F048
:10F0A00099F80020E3E70000F820002038B50400BC
:10F0B00014D0694604F0F4F8002813D0684600889C
:10F0C0000101094809188889002809D0A27A002A74
:10F0D00006D0401E88810020A07238BD052038BDB2
:10F0E000062038BD0A2038BD1C2C00201FB501A900
:10F0F000684604F093F804B010BD07B513460A46FD
:10F100006946002004F08AF80EBD07B513460A468A
:10F110000021684604F082F80EBD002805D00029C1
:10F1200003D0006808600020704705207047000089
:10F1300038B50D46040017D0002D15D0694604F0EF
:10F14000AFF8002812D068460088616802010848BC
:10F1500012189089401C9081296060680C306860AA
:10F160000120A072002038BD052038BD0A2038BD1E
:10F170001C2C002010B5002804D00323002205F029
:10F18000D9FC10BD052010BD10B50223002205F0EA
:10F19000D1FC10BD10B5002A03D0022305F0CAFC33
:10F1A00010BD052010BD000010B5064A5178082991
:10F1B00006D08B00044C491CE0505170002010BD5B
:10F1C0000C2010BDF82000203C2B002038B5044650
:10F1D0000A480D460078800701D4022038BD002C73
:10F1E0000AD06946284605F0B5FD0028F6D16946E3
:10F1F00009882180658038BD052038BDF8200020B1
:10F2000010B504460E480078800701D4022010BDD6
:10F21000002C10D0218802290FD80A4A0801801832
:10F2200042896088121A032A07D405F089FD00205C
:10F230002080608010BD052010BD042010BD00009E
:10F24000F82000201C2C0020826883881A40036864
:10F250009A5C0A708168491C81607047C268838823
:10F260001A4003689954C168491CC1607047032162
:10F270008903401A80B2704703218903401A034969
:10F28000884201D80120704700207047FE3F0000EF
:10F2900002490A7882430A7070470000F820002073
:10F2A00010B504460078182802D1FEF7B3F9207093
:10F2B00010BD10B504460078182802D1FEF7AAF94F
:10F2C000207010BD02490A7802430A70704700009E
:10F2D000F820002070B5064600200546862906D095
:10F2E000112902D0002903D070BD012500E00120C2
:10F2F0000E4C002A02460FD061793046FEF7C0F965
:10F300002A4621793046FEF7BBF900226178304663
:10F31000FEF7B6F9002204E061783046FEF7B0F956
:10F320002A4621783046FEF7ABF970BDA0200020B8
:10F33000F8B506461C481F46007815460C46C0071F
:10F340000AD03046FFF760F9002807D0002C07D01C
:10F35000A00507D00620F8BD0120F8BD0220F8BDA9
:10F360000320F8BD3068A04204D8A80271680019D3
:10F37000884201D90520F8BD002D10D0684603F061
:10F380007BFE00280DD000980221C0C00170A101B1
:10F39000090C8180058103F02BFF0020F8BD0420BB
:10F3A000F8BD0720F8BD00001021002010B5084668
:10F3B00003F07EFE10BD0000F0B52648264C001B71
:10F3C0000309264819464069421C03D10120000761
:10F3D00040698002224A12789646D2070CD000205B
:10F3E000F0BD1D4C15012C192568002D03D0646853
:10F3F000002C00D0491E521C9A42F2D3002420E077
:10F40000E2B2002594462A460FE0134E1701BE19BA
:10F410003768002F02D07768002F05D1767BAE4287
:10F4200002D93546D6B2B446521C9A42EDD3624652
:10F430001501094AAA185060157BAD02401B641CD7
:10F4400010608C42DCD306487146012211430170E2
:10F45000C5E700007021002060210020001000108E
:10F4600010210020002804D00349496E01600020CB
:10F4700070470320704700004C2C0020F8B5074669
:10F480001E481E46007815460C46C0070ED038466A
:10F49000FFF7BAF800280BD0002D0BD0002C09D0B4
:10F4A00028462043800707D00620F8BD0120F8BD7C
:10F4B0000220F8BD0320F8BD3868A04204D8B1008E
:10F4C00078680919884201D20520F8BD002E11D0B4
:10F4D000684603F0D1FD00280ED000980699076019
:10F4E000416001210172C5600461868203F080FEE3
:10F4F0000020F8BD0420F8BD0720F8BD1021002031
:10F5000070B5174B0446186E182148431549C018AA
:10F510000A78950715D5022C02D0032C1CD102E0E5
:10F5200002F08AFB18E04A78521CD2B24A70032AD1
:10F5300012D900224A70082104F068F903F086FD10
:10F540000AE0500708D5FB2002400A70586E0028D8
:10F5500002D0022002430A7003F006FE70BD0000D4
:10F560004C2C002010210020FFB5002781B005465B
:10F570003C46009700280CD00298002809D0284665
:10F58000FBF719FE0646A8192038C07F0A2804D0C8
:10F5900058E00020C04305B0F0BDB61E52E0009810
:10F5A000002823D129780498814201D0002847D12E
:10F5B000012000900398844202DB0120C043EAE767
:10F5C0000498002809D069780B98814209D1254810
:10F5D000A20001680298815007E00298A1004550FE
:10F5E00003E0681C0299A2008850641C29780A98DC
:10F5F000FBF7D7FD002802D00020287024E02978EE
:10F600000B9881421CD1002028700398844202DBB1
:10F610000220C043BFE769780A98FBF7C2FD0028C3
:10F6200003D169780B98814205D10E48A200016888
:10F630000298815003E0681C0299A2008850641C63
:10F640006D1C7F1CB742AADB06492046096803E00F
:10F650008300029A401CD150039A9042F8DB204666
:10F6600099E700004021002070B5002801D001205A
:10F6700070BD164C0025207B002801D0257301E0C9
:10F6800000F09CF820780300FCF7AFFB081E05088B
:10F690000B0E1E111A1E00F01BF870BD00F07EF854
:10F6A00070BD00F061F870BD00F038F870BD608882
:10F6B0000649000120394018406802F087FB70BD00
:10F6C000656002F091FB70BD0F2070BD3C2C0020E6
:10F6D00070B5104900208A1C0D460346203D0C18C9
:10F6E000A67A002E08D0A37204016419A689002E00
:10F6F00002D1A47B012C08D0401C80B20228EED39A
:10F700000B704B8004484B6070BD108000F046F8D1
:10F7100070BD00003C2C00201D1D000010B50F4CDA
:10F7200060880101204620380818818900290BD003
:10F73000052020700A4802218180016800230122EF
:10F740000848FFF7F5FD10BD416800230122054878
:10F75000FFF7EEFD0421217010BD00003C2C0020BD
:10F76000082100206021002038B50A4908480B68AC
:10F77000898842688900591853880324047000203E
:10F78000DB1C00909BB20448FFF778FE38BD0000F8
:10F790003C2C0020082100206021002010B50649E3
:10F7A0004888091D03F0CCFD002802D0FFF7DCFFDC
:10F7B00010BDFFF7B3FF10BD3C2C0020F0B51D4875
:10F7C0001D4907780246012502268C88203A3B0015
:10F7D000FCF70BFB080517171A212C2C16170189AB
:10F7E000491C01810021418001730B01D35C002B76
:10F7F00008D000234418491C89B2A3720229F4D30B
:10F800000570F0BD0123F5E742685288D21CA218AA
:10F810008A800670F0BD45880B682D01AA185568CE
:10F820000D60536014818E80062100E00721017075
:10F83000F0BD00003C2C002008210020F0B504465B
:10F840000088384D8DB050281DD0522802D0542841
:10F8500026D103E0A08800F07BFF21E00620694666
:10F860000870A08800F0A8FB69464880A2888A80BA
:10F8700000F054F9A0880022E978FDF701FF6846FE
:10F88000FFF7BCFA0CE0207B012809D1A07A0128FF
:10F8900006D120892449884202D1A08800F094FF33
:10F8A000A878FDF7CFFE002819D008A8FDF7FEFDC7
:10F8B000142208A903A8FBF743FC002403AE0BE0C5
:10F8C00060008719B888A978FDF7C8FE002802D023
:10F8D000B88800F03DFF641C0398A042F0D8687817
:10F8E000FDF7B0FE002819D008A8FDF7DFFD1422AF
:10F8F00008A903A8FBF724FC002403AE0BE060007A
:10F900008719B8886978FDF7A9FE002802D0B88861
:10F9100000F05AFF641C0398A042F0D803F0E8FFFF
:10F920000DB0F0BD54200020022900003EB5044671
:10F930004088694648802078002814D001281DD0CE
:10F9400002280FD1207900280CD0608800F068FAD6
:10F950000E49884206D00E490122C978FDF790FE73
:10F9600003F0C6FF3EBD002008700846FFF746FAC8
:10F97000608800F055FA00F0EBFE3EBD01216846BC
:10F980000170A1888180FFF739FA3EBDFFFF0000BA
:10F990005420002010B50446007801280DD160885D
:10F9A00000F0D6FE608800F07FF9002805D00349FA
:10F9B00060880122C978FDF763FE10BD5420002045
:10F9C00010B5104C00202070FDF724FE6070FDF78C
:10F9D00021FEA070FDF71EFEE070FDF71BFE2071FA
:10F9E000617818290BD0A178182908D0E178182956
:10F9F00005D0182803D001202070002010BD03205E
:10FA000010BD000054200020F0B585B000F09EF835
:10FA10006846FDF74BFD00246D460C4F0EE060007C
:10FA20004619B08800F0C8FAB84205D10849B08834
:10FA30000122C978FDF724FE641CA4B20098A042FC
:10FA4000EDD803F055FF05B0F0BD0000FFFF00004A
:10FA50005420002010B50178072902D1408800F019
:10FA6000B3FE10BD10B504460A4841782046FDF7A4
:10FA7000F5FD00280CD0084800210C224A4312183A
:10FA80005288A24201D1C8B210BD491C0829F4D342
:10FA9000FF2010BD6C2000205826002070B5094DB5
:10FAA000094E00240C206043401940887178FDF70E
:10FAB000D5FD002804D0641C082CF3D3FF2070BDB2
:10FAC000E0B270BD582600206C200020F8B5074633
:10FAD000104E0125BD403068FDF71CF900280DD1FE
:10FAE0000D4C2069284207D1384601F007FB002859
:10FAF000E06804D0284303E0A8432061F8BDA84390
:10FB0000E0602069002228432061A1683068FDF789
:10FB1000BDF8F8BD884E0200B82000201CB5054A8B
:10FB20009168D268019200910022694602F03EFB82
:10FB30001CBD0000044E020003480021C94381801F
:10FB400001210170002070476020002010B504489A
:10FB500002F060FA0349888003F0F6FE10BD000051
:10FB6000FFFF000060200020F1B582B0029800F095
:10FB700023FA00241649032501272646884209D086
:10FB80006A46082102F0E8FA002803D10198868825
:10FB90000568841D2B46324621460298A9DF0428B9
:10FBA00004D0082804D00B2807D002E0112000E080
:10FBB0000020002F00D10B20FEBD0027A80701D593
:10FBC0000125E7E73443F6D0002426460325E1E784
:10FBD000FFFF0000F1B582B0029800F0EDF9074692
:10FBE0001B48874201D11B48FEBD01252A466D1CDA
:10FBF0000026ADB26B460821384602F0DDFA04005B
:10FC000002D0072C21D021E0019903230B600A1DAB
:10FC1000891D0298AADF040004D00C2C08D0052C02
:10FC200008D008E00821384602F060FB04460DE0E9
:10FC3000012600E000240821384602F041FB00289C
:10FC400000D00324002ED1D100E00C242046FEBDBC
:10FC5000FFFF0000023000001FB5044600780128B5
:10FC600015D12079012812D1608802AA012102F061
:10FC700073FA00280BD10221684601706188418027
:10FC80000398017868460171054909688847044866
:10FC9000044908388088884201D003F055FE1FBD12
:10FCA00068200020FFFF00001CB500F085F96A46BF
:10FCB000012102F051FA002801D000201CBD01985A
:10FCC00000781CBDF8B5074E074C084D0746324674
:10FCD00061883846A7DFA84203D16088401C608055
:10FCE000F5E7F8BDFFFF00006020002003300000B2
:10FCF0008188054A914204D00088002801D0012063
:10FD00007047002070470000FFFF00003EB504462A
:10FD100000780D46022815D10322611C6846FBF7C6
:10FD20000FFA0322211D02A8FBF70AFA01AA02A971
:10FD30002846FCF789FE032201A96846FBF750FA22
:10FD4000002801D000203EBD01203EBD10B50C466C
:10FD5000FFF788FEFF280AD00C21484305490722F7
:10FD600041182046091DFBF7EBF9002010BD0520C6
:10FD700010BD00005826002070B5018890B01029F1
:10FD800049D1011D2C2202A8FBF7DAF96846234E5F
:10FD9000007B344602AD03282AD002F0AFFB684650
:10FDA000007B00280ED001280CD0022820D118E0BA
:10FDB0000E99281D1131FCF719FD002802D0684664
:10FDC000048815E00DAA6946072002F06DFB0028A3
:10FDD000EED10DE00E99281D491CFFF797FF002872
:10FDE000EDD10DAA6946072002F05EFB0028F1D193
:10FDF00068460089291D00F05BFFB4420BD06846BD
:10FE00000089214600F086F8684601894180012179
:10FE10000170FEF7F9FF10B070BD0000FFFF000099
:10FE2000084A00210C234B43D35A834204D10C20AF
:10FE30004143881840887047491C0829F2D302487A
:10FE40007047000058260020FFFF000010B50E4C40
:10FE5000182060700D4A0E4900200C2343435B18A4
:10FE6000401C5A800828F8D3FDF7D4FB607018288E
:10FE700004D00548C01C71DF002801D0032010BD4C
:10FE800001202070002010BD6C200020FFFF00002A
:10FE90005826002070B504460D46401C00F001FABB
:10FEA000002810D01022691C601CFBF799F900286B
:10FEB0000AD000262946204611311130FCF796FC65
:10FEC00001463046084370BD0126F3E7018800294A
:10FED00003D142189278002A01D001207047491CB2
:10FEE0000829F6D30020704710B50C460346FFF7EB
:10FEF000EDFF00280BD018882188884206D10822FF
:10FF0000A11C981CFBF76CF9002801D0002010BD43
:10FF1000012010BD10B502F0AFFC10BD10B50446B5
:10FF2000007888B0002826D12079072823D160885E
:10FF300001AA072102F010F900281CD102F0DEFA14
:10FF40001BE0694660880988884216D004990298A7
:10FF5000FFF7A0FF002810D06088FFF761FF01467F
:10FF60006846C1820021017561880183018841834F
:10FF700005A8FEF749FF08B010BD03AA694607208F
:10FF800002F092FA0028DCD1F5E7000070B50446D3
:10FF9000FFF746FF0546204602F0E3F80549044610
:10FFA0008D4204D0002C02D1284602F065FC204688
:10FFB00070BD0000FFFF000010B5FFF753FDFF28E4
:10FFC00004D00C2148430249085A10BD014810BD15
:10FFD00058260020FFFF00003EB5044602F08EFACE
:10FFE00010E0019920464631FFF77EFF002806D138
:10FFF000019920462A31FFF777FF002802D0684692
:020000040002F8
:1000000000893EBD6A4602A9072002F04DFA002889
:10001000E7D101483EBD0000FFFF0000F8B50F46E4
:10002000002804D00120FFF733F90120F8BD397909
:1000300000290AD00026254D01290BD0244C022985
:1000400020681FD003293BD125E001F0CDFE01211E
:10005000397133E000200101695C02290BD0401C9A
:1000600080B20228F7D30220FFF72CF90120FFF716
:100070000FF91848F8BD04016019406801F0A6FEA8
:100080002E551BE00146002301221348FFF750F9CB
:100090000221A18011E001F099FE0C492368203172
:1000A00049880A01094951184D6825604B60A388A9
:1000B0000B810221A18005498E543E710028D9D0C0
:1000C0000120FFF7E5F80E20F8BD00001C2C0020F1
:1000D000082100201D1D000060210020F8B51E4CE5
:1000E0002078002836D0E068002600280CD00025B3
:1000F000607800282ED1684652DF052806D00028F7
:1001000006D0FCF73DFD0BE00125F1E7012607E0F5
:10011000009800F01DFF2169002901D00098884750
:10012000002D13D16078002814D1608869460880BA
:10013000A06861DF052804D0002804D0FCF720FD6A
:1001400004E0012502E0E168A0688847002ECFD0D6
:10015000002DE5D0F8BD00002C2100204188054885
:100160000288914204D34088814201D8012070471F
:1001700000207047442000201048018CC9B201299A
:1001800017D1818C090714D1018D09060A0F03D1FB
:10019000828D1206120F0ED0090F012903D1828D14
:1001A0001206120F07D0032903D1808D0006000F1D
:1001B00001D000207047012070470000C00F00F000
:1001C000F3B500240D4683B08E46093562E0285D04
:1001D00029190190487802280AD0032808D0042859
:1001E00023D0052821D006283CD007283AD04EE05D
:1001F00001980026470815E07000001941190220F7
:100200006A46891C64DF00280BD168460188039880
:100210000088814205D168468178039880788142C0
:1002200032D0761CB742E7D831E001980026870823
:1002300015E0B0000019411902206A46891C64DFEC
:1002400000280BD16846018803980088814205D1B7
:100250006846817803988078814215D0761CB74231
:10026000E7D814E010206A46891C64DF00280ED10C
:100270006846018803980088814208D168468178E1
:1002800003988078814202D1012005B0F0BD019829
:100290002418641C7046007AC008A04297D8002039
:1002A000F3E70021425C002A01D001207047491C7D
:1002B0001029F7D300207047800701D00020704735
:1002C0000120704710B50448017BC90702D00078AF
:1002D000FEF746F810BD0000F41F0020FFB5244DC6
:1002E00081B0287A1F460E46084304D0039A002E98
:1002F00004D0002104E0052005B0F0BD1C491031F8
:10030000019803F081FD0446014600220198FEF7A2
:10031000E1FF002F03D021460198FEF755FD112C77
:100320000FD006DC002C0AD0082C08D00D2C05D1EB
:1003300005E0862C11D00F48C44200D0032420468B
:10034000DAE73246E9780198FDF79AF9A978039A35
:100350000198FDF795F90024F1E73246E978019814
:10036000FDF78EF9A978039A0198FDF789F9E6E778
:10037000A0200020FECFFFFFFEB517460C0006466A
:1003800004D02078C00704D0012003E000217EDFE4
:10039000FEBD0220694608713046FFF70DFE174981
:1003A0000546884208D001A800902B463A462146CF
:1003B000304600F025F806E020782146C007304698
:1003C00003D000F081F804460BE07EDF04460020F5
:1003D0000090002C08D0002201232946304603F06B
:1003E000E1F9002C02D006E00122F5E76846017928
:1003F000304603F0FDF92046FEBD0000FFFF00007F
:10040000FFB585B000252E4601AA07210E9F08984A
:1004100001F0A2FE040008D1029D4420405D183581
:10042000C607F60F01D0029D34350798204312D13C
:10043000002D10D0002E05D128461230FFF746FDC2
:10044000002808D029462A461231059885DF04463F
:100450000020387023E0002C01D0052C1FD1069815
:100460000078C0070DD003AB01220721089801F0E6
:10047000A3FE04000AD10721089801F09BFF0400A5
:1004800004D1069905987EDF040008D0072108985A
:1004900001F016FF002802D0052800D00324002018
:1004A00000903878002801D0012300E00023002CC0
:1004B00007D000220899059803F074F9204609B086
:1004C000F0BD0122F6E70000FEB50F46064601F03A
:1004D0003FFE05461848854220D001AB0122072186
:1004E000284601F069FE04000AD10721284601F0E0
:1004F00061FF040004D1394630467EDF040008D095
:100500000721284601F0DCFE002802D0052800D093
:10051000032401200090002C0BD002E003240020D3
:100520000090002201232946304603F03BF9204683
:10053000FEBD0122F6E70000FFFF0000F7B5114DF8
:100540000F46164629780098FDF788F8002812D043
:100550000098FFF731FD04460B4884420BD06978C0
:100560000098FDF77BF8002806D033463A4621462E
:10057000009801F0C3FCFEBD324639460098FEF7F4
:10058000C5FBFEBD9C200020FFFF0000F1B586B03A
:100590000698FDF757F8002821D06846FCF786FF3B
:1005A00000246E4618E060008519A8880699FDF7BA
:1005B00055F800280FD00B4FA888B978FDF74EF8F2
:1005C0000590A888F978FDF749F80146A888012325
:1005D000059AFFF783FE641C0098A042E3D807B099
:1005E000F0BD0000A0200020F0B5284C21461039B5
:1005F00048688B68227886469C46CF78667836E0D5
:10060000182353436168521CC918A378D2B293428D
:1006100000D100220B78022B02D0032B27D123E03C
:1006200003464D68194603E0A94204D00B46C96948
:1006300000291CD0F8E7002919D08B4208D1C069E5
:10064000002805D1124F0125BD600025AC460127C9
:100650000D68C969D961002909D00B685B190B6065
:1006600005E00174C06900E000210028F9D196423C
:10067000C6D10649624610398A604860CF7070451D
:1006800001D00120F0BD0020F0BD0000DC200020E2
:1006900000100140F8B52C4E04467068002500900B
:1006A00041E0002C02D02046E46920E026481823CF
:1006B0001030017842684B43491CC9B2D21801700E
:1006C0008378994200D105701178506801292CD1A6
:1006D000017C002929D191684160D168816011694C
:1006E000C16051698161F178002900D0456043689B
:1006F000B268164F991A0902090AB94202D28268F1
:10070000891806E0D11A09028268090A8A4202D9C8
:10071000511A016000E005604560012185600174A7
:10072000C56103F075FD002CBBD10748103001787E
:1007300040788142BAD171680098814201D001208D
:10074000F8BD0020F8BD0000CC200020FFFF7F0096
:10075000FEB504461948002684422DD02046FFF7F6
:1007600003FA050012D00B2D14D0112D10D014480F
:10077000C5421BD00921684601702046FFF71CFCCA
:10078000014668464180848002950DE0022102E026
:1007900001260BE00321684601702046FFF70CFCA0
:1007A0000146684641808480FEF728FB05483246B2
:1007B00081782046FCF764FFFEBD0000FFFF0000CB
:1007C000FECFFFFF54200020FEB504460026FFF7B1
:1007D00001FA0546112818D004DC002D13D00C2D89
:1007E00005D114E0862D25D01348C5421BD0092120
:1007F000684601702046FFF7DFFB014668464180EE
:10080000848002950DE0012102E001260BE0072122
:100810006846017084802046FFF7CEFB014668469B
:100820004180FEF7EBFA0548324641782046FCF756
:1008300027FFFEBD0821EBE7FECFFFFF542000207D
:10084000F8B5054600780C46002620420FD100205E
:10085000694608706846FCF705FB2878204202D1FB
:1008600020432870012668460078FCF719FB3046C3
:10087000F8BD000098B0002001F000F9002801D078
:10088000FCF77EF90E2000F002FE112000F0FFFDC3
:10089000122000F0FCFD01210E2000F02FFE0021AF
:1008A000112000F02BFE0021122000F027FE08206E
:1008B00000F0EDFD142000F0EAFD0121082000F019
:1008C0001DFE0121142000F019FEFBF71BFF0A2476
:1008D000204600F0DCFD0121204600F00FFE0A203A
:1008E000002100F00BFE6B4969480968420100BF16
:1008F00000BF00BF00BF00BF00BF00BF00BF9142EC
:1009000000D000BF0138F2D103F010FF02F0A8FFC1
:10091000012804D060A1032001F016F802E00120B4
:1009200001F0F0F90023634A05211846FCF774F939
:10093000002801D0FCF724F95F4A01215F48FCF749
:1009400055F9002801D0FCF71BF95D4A5D490320E9
:10095000FDF7BAFC002801D0FCF712F901A900202C
:10096000FDF7A2FB002801D0FCF70AF968460079E0
:1009700002287DD0002168460170FCF7DFFE684642
:10098000007801F08DFF68460078002803D04EA162
:10099000032000F0D9FF112069460872042252A1F9
:1009A00002A87CDF002801D0FCF7EAF800240094BC
:1009B0005021684601940180A0214180FF2184805C
:1009C0009131C1807ADF002801D0FCF7D9F83C21B1
:1009D00001A8FAF7CEFB0221684601710125857155
:1009E0000621C171858242480690202110A8FAF79D
:1009F000C0FB10A8C57040200094149015943D4B86
:100A000010AA002101A8FCF74BFB002801D0FCF73D
:100A1000B7F81C216846FAF7ACFB0520C00301902B
:100A20000F20000402900094032168460173C481E2
:100A3000047431480590314806906846FCF7C4FCC0
:100A4000002801D0FCF79CF82DA1032000F07CFFCA
:100A50000320FCF735FC002801D0FCF791F817487B
:100A600008308ADF002801D0FCF78AF8012000E076
:100A700002E0FDF71BFC06E001217CE700F0B2FE7E
:100A80000028FBD148DF0028F8D0FCF779F8F5E71B
:100A900020A107005C2100204D584E303033463AEB
:100AA000494E464F3A73656E736F72206572726F6E
:100AB000720D0A00902100209D480200A04D020006
:100AC00021E20100CD0C00004D584E303033463A43
